{
  "_format": "hh-sol-artifact-1",
  "contractName": "MockStableCoin",
  "sourceName": "contracts/mock/MockStableCoin.sol",
  "abi": [
    {
      "inputs": [],
      "stateMutability": "nonpayable",
      "type": "constructor"
    },
    {
      "anonymous": false,
      "inputs": [
        {
          "indexed": true,
          "internalType": "address",
          "name": "owner",
          "type": "address"
        },
        {
          "indexed": true,
          "internalType": "address",
          "name": "spender",
          "type": "address"
        },
        {
          "indexed": false,
          "internalType": "uint256",
          "name": "value",
          "type": "uint256"
        }
      ],
      "name": "Approval",
      "type": "event"
    },
    {
      "anonymous": false,
      "inputs": [
        {
          "indexed": true,
          "internalType": "address",
          "name": "previousOwner",
          "type": "address"
        },
        {
          "indexed": true,
          "internalType": "address",
          "name": "newOwner",
          "type": "address"
        }
      ],
      "name": "OwnershipTransferred",
      "type": "event"
    },
    {
      "anonymous": false,
      "inputs": [
        {
          "indexed": true,
          "internalType": "address",
          "name": "from",
          "type": "address"
        },
        {
          "indexed": true,
          "internalType": "address",
          "name": "to",
          "type": "address"
        },
        {
          "indexed": false,
          "internalType": "uint256",
          "name": "value",
          "type": "uint256"
        }
      ],
      "name": "Transfer",
      "type": "event"
    },
    {
      "inputs": [
        {
          "internalType": "address",
          "name": "owner",
          "type": "address"
        },
        {
          "internalType": "address",
          "name": "spender",
          "type": "address"
        }
      ],
      "name": "allowance",
      "outputs": [
        {
          "internalType": "uint256",
          "name": "",
          "type": "uint256"
        }
      ],
      "stateMutability": "view",
      "type": "function"
    },
    {
      "inputs": [
        {
          "internalType": "address",
          "name": "spender",
          "type": "address"
        },
        {
          "internalType": "uint256",
          "name": "amount",
          "type": "uint256"
        }
      ],
      "name": "approve",
      "outputs": [
        {
          "internalType": "bool",
          "name": "",
          "type": "bool"
        }
      ],
      "stateMutability": "nonpayable",
      "type": "function"
    },
    {
      "inputs": [
        {
          "internalType": "address",
          "name": "account",
          "type": "address"
        }
      ],
      "name": "balanceOf",
      "outputs": [
        {
          "internalType": "uint256",
          "name": "",
          "type": "uint256"
        }
      ],
      "stateMutability": "view",
      "type": "function"
    },
    {
      "inputs": [
        {
          "internalType": "address",
          "name": "account_",
          "type": "address"
        },
        {
          "internalType": "uint256",
          "name": "amount_",
          "type": "uint256"
        }
      ],
      "name": "burnFrom",
      "outputs": [],
      "stateMutability": "nonpayable",
      "type": "function"
    },
    {
      "inputs": [],
      "name": "decimals",
      "outputs": [
        {
          "internalType": "uint8",
          "name": "",
          "type": "uint8"
        }
      ],
      "stateMutability": "view",
      "type": "function"
    },
    {
      "inputs": [
        {
          "internalType": "address",
          "name": "spender",
          "type": "address"
        },
        {
          "internalType": "uint256",
          "name": "subtractedValue",
          "type": "uint256"
        }
      ],
      "name": "decreaseAllowance",
      "outputs": [
        {
          "internalType": "bool",
          "name": "",
          "type": "bool"
        }
      ],
      "stateMutability": "nonpayable",
      "type": "function"
    },
    {
      "inputs": [
        {
          "internalType": "address",
          "name": "spender",
          "type": "address"
        },
        {
          "internalType": "uint256",
          "name": "addedValue",
          "type": "uint256"
        }
      ],
      "name": "increaseAllowance",
      "outputs": [
        {
          "internalType": "bool",
          "name": "",
          "type": "bool"
        }
      ],
      "stateMutability": "nonpayable",
      "type": "function"
    },
    {
      "inputs": [
        {
          "internalType": "address",
          "name": "account",
          "type": "address"
        },
        {
          "internalType": "uint256",
          "name": "amount",
          "type": "uint256"
        }
      ],
      "name": "mint",
      "outputs": [],
      "stateMutability": "nonpayable",
      "type": "function"
    },
    {
      "inputs": [],
      "name": "name",
      "outputs": [
        {
          "internalType": "string",
          "name": "",
          "type": "string"
        }
      ],
      "stateMutability": "view",
      "type": "function"
    },
    {
      "inputs": [],
      "name": "owner",
      "outputs": [
        {
          "internalType": "address",
          "name": "",
          "type": "address"
        }
      ],
      "stateMutability": "view",
      "type": "function"
    },
    {
      "inputs": [],
      "name": "renounceOwnership",
      "outputs": [],
      "stateMutability": "nonpayable",
      "type": "function"
    },
    {
      "inputs": [],
      "name": "symbol",
      "outputs": [
        {
          "internalType": "string",
          "name": "",
          "type": "string"
        }
      ],
      "stateMutability": "view",
      "type": "function"
    },
    {
      "inputs": [],
      "name": "totalSupply",
      "outputs": [
        {
          "internalType": "uint256",
          "name": "",
          "type": "uint256"
        }
      ],
      "stateMutability": "view",
      "type": "function"
    },
    {
      "inputs": [
        {
          "internalType": "address",
          "name": "to",
          "type": "address"
        },
        {
          "internalType": "uint256",
          "name": "amount",
          "type": "uint256"
        }
      ],
      "name": "transfer",
      "outputs": [
        {
          "internalType": "bool",
          "name": "",
          "type": "bool"
        }
      ],
      "stateMutability": "nonpayable",
      "type": "function"
    },
    {
      "inputs": [
        {
          "internalType": "address",
          "name": "from",
          "type": "address"
        },
        {
          "internalType": "address",
          "name": "to",
          "type": "address"
        },
        {
          "internalType": "uint256",
          "name": "amount",
          "type": "uint256"
        }
      ],
      "name": "transferFrom",
      "outputs": [
        {
          "internalType": "bool",
          "name": "",
          "type": "bool"
        }
      ],
      "stateMutability": "nonpayable",
      "type": "function"
    },
    {
      "inputs": [
        {
          "internalType": "address",
          "name": "newOwner",
          "type": "address"
        }
      ],
      "name": "transferOwnership",
      "outputs": [],
      "stateMutability": "nonpayable",
      "type": "function"
    }
  ],
  "bytecode": "0x60806040523480156200001157600080fd5b506040518060400160405280600a81526020017f4d6f636b537461626c65000000000000000000000000000000000000000000008152506040518060400160405280600281526020017f4d530000000000000000000000000000000000000000000000000000000000008152506200009e62000092620000f460201b60201c565b620000fc60201b60201c565b8160049080519060200190620000b692919062000344565b508060059080519060200190620000cf92919062000344565b505050620000ee3369021e19e0c9bab2400000620001c060201b60201c565b620005a0565b600033905090565b60008060009054906101000a900473ffffffffffffffffffffffffffffffffffffffff169050816000806101000a81548173ffffffffffffffffffffffffffffffffffffffff021916908373ffffffffffffffffffffffffffffffffffffffff1602179055508173ffffffffffffffffffffffffffffffffffffffff168173ffffffffffffffffffffffffffffffffffffffff167f8be0079c531659141344cd1fd0a4f28419497f9722a3daafe3b4186f6b6457e060405160405180910390a35050565b600073ffffffffffffffffffffffffffffffffffffffff168273ffffffffffffffffffffffffffffffffffffffff16141562000233576040517f08c379a00000000000000000000000000000000000000000000000000000000081526004016200022a906200042c565b60405180910390fd5b62000247600083836200033a60201b60201c565b80600360008282546200025b91906200047c565b9250508190555080600160008473ffffffffffffffffffffffffffffffffffffffff1673ffffffffffffffffffffffffffffffffffffffff1681526020019081526020016000206000828254620002b391906200047c565b925050819055508173ffffffffffffffffffffffffffffffffffffffff16600073ffffffffffffffffffffffffffffffffffffffff167fddf252ad1be2c89b69c2b068fc378daa952ba7f163c4a11628f55a4df523b3ef836040516200031a91906200044e565b60405180910390a362000336600083836200033f60201b60201c565b5050565b505050565b505050565b8280546200035290620004e3565b90600052602060002090601f016020900481019282620003765760008555620003c2565b82601f106200039157805160ff1916838001178555620003c2565b82800160010185558215620003c2579182015b82811115620003c1578251825591602001919060010190620003a4565b5b509050620003d19190620003d5565b5090565b5b80821115620003f0576000816000905550600101620003d6565b5090565b600062000403601f836200046b565b9150620004108262000577565b602082019050919050565b6200042681620004d9565b82525050565b600060208201905081810360008301526200044781620003f4565b9050919050565b60006020820190506200046560008301846200041b565b92915050565b600082825260208201905092915050565b60006200048982620004d9565b91506200049683620004d9565b9250827fffffffffffffffffffffffffffffffffffffffffffffffffffffffffffffffff03821115620004ce57620004cd62000519565b5b828201905092915050565b6000819050919050565b60006002820490506001821680620004fc57607f821691505b6020821081141562000513576200051262000548565b5b50919050565b7f4e487b7100000000000000000000000000000000000000000000000000000000600052601160045260246000fd5b7f4e487b7100000000000000000000000000000000000000000000000000000000600052602260045260246000fd5b7f45524332303a206d696e7420746f20746865207a65726f206164647265737300600082015250565b611d8b80620005b06000396000f3fe608060405234801561001057600080fd5b50600436106101005760003560e01c8063715018a611610097578063a457c2d711610066578063a457c2d71461029d578063a9059cbb146102cd578063dd62ed3e146102fd578063f2fde38b1461032d57610100565b8063715018a61461023b57806379cc6790146102455780638da5cb5b1461026157806395d89b411461027f57610100565b8063313ce567116100d3578063313ce567146101a157806339509351146101bf57806340c10f19146101ef57806370a082311461020b57610100565b806306fdde0314610105578063095ea7b31461012357806318160ddd1461015357806323b872dd14610171575b600080fd5b61010d610349565b60405161011a919061163e565b60405180910390f35b61013d600480360381019061013891906113b3565b6103db565b60405161014a9190611623565b60405180910390f35b61015b6103fe565b60405161016891906117e0565b60405180910390f35b61018b60048036038101906101869190611364565b610408565b6040516101989190611623565b60405180910390f35b6101a9610437565b6040516101b691906117fb565b60405180910390f35b6101d960048036038101906101d491906113b3565b610440565b6040516101e69190611623565b60405180910390f35b610209600480360381019061020491906113b3565b6104ea565b005b610225600480360381019061022091906112ff565b610574565b60405161023291906117e0565b60405180910390f35b6102436105bd565b005b61025f600480360381019061025a91906113b3565b610645565b005b610269610653565b6040516102769190611608565b60405180910390f35b61028761067c565b604051610294919061163e565b60405180910390f35b6102b760048036038101906102b291906113b3565b61070e565b6040516102c49190611623565b60405180910390f35b6102e760048036038101906102e291906113b3565b6107f8565b6040516102f49190611623565b60405180910390f35b61031760048036038101906103129190611328565b61081b565b60405161032491906117e0565b60405180910390f35b610347600480360381019061034291906112ff565b6108a2565b005b60606004805461035890611944565b80601f016020809104026020016040519081016040528092919081815260200182805461038490611944565b80156103d15780601f106103a6576101008083540402835291602001916103d1565b820191906000526020600020905b8154815290600101906020018083116103b457829003601f168201915b5050505050905090565b6000806103e661099a565b90506103f38185856109a2565b600191505092915050565b6000600354905090565b60008061041361099a565b9050610420858285610b6d565b61042b858585610bf9565b60019150509392505050565b60006012905090565b60008061044b61099a565b90506104df818585600260008673ffffffffffffffffffffffffffffffffffffffff1673ffffffffffffffffffffffffffffffffffffffff16815260200190815260200160002060008973ffffffffffffffffffffffffffffffffffffffff1673ffffffffffffffffffffffffffffffffffffffff168152602001908152602001600020546104da9190611832565b6109a2565b600191505092915050565b6104f261099a565b73ffffffffffffffffffffffffffffffffffffffff16610510610653565b73ffffffffffffffffffffffffffffffffffffffff1614610566576040517f08c379a000000000000000000000000000000000000000000000000000000000815260040161055d90611720565b60405180910390fd5b6105708282610e7d565b5050565b6000600160008373ffffffffffffffffffffffffffffffffffffffff1673ffffffffffffffffffffffffffffffffffffffff168152602001908152602001600020549050919050565b6105c561099a565b73ffffffffffffffffffffffffffffffffffffffff166105e3610653565b73ffffffffffffffffffffffffffffffffffffffff1614610639576040517f08c379a000000000000000000000000000000000000000000000000000000000815260040161063090611720565b60405180910390fd5b6106436000610fde565b565b61064f82826110a2565b5050565b60008060009054906101000a900473ffffffffffffffffffffffffffffffffffffffff16905090565b60606005805461068b90611944565b80601f01602080910402602001604051908101604052809291908181526020018280546106b790611944565b80156107045780601f106106d957610100808354040283529160200191610704565b820191906000526020600020905b8154815290600101906020018083116106e757829003601f168201915b5050505050905090565b60008061071961099a565b90506000600260008373ffffffffffffffffffffffffffffffffffffffff1673ffffffffffffffffffffffffffffffffffffffff16815260200190815260200160002060008673ffffffffffffffffffffffffffffffffffffffff1673ffffffffffffffffffffffffffffffffffffffff168152602001908152602001600020549050838110156107df576040517f08c379a00000000000000000000000000000000000000000000000000000000081526004016107d6906117a0565b60405180910390fd5b6107ec82868684036109a2565b60019250505092915050565b60008061080361099a565b9050610810818585610bf9565b600191505092915050565b6000600260008473ffffffffffffffffffffffffffffffffffffffff1673ffffffffffffffffffffffffffffffffffffffff16815260200190815260200160002060008373ffffffffffffffffffffffffffffffffffffffff1673ffffffffffffffffffffffffffffffffffffffff16815260200190815260200160002054905092915050565b6108aa61099a565b73ffffffffffffffffffffffffffffffffffffffff166108c8610653565b73ffffffffffffffffffffffffffffffffffffffff161461091e576040517f08c379a000000000000000000000000000000000000000000000000000000000815260040161091590611720565b60405180910390fd5b600073ffffffffffffffffffffffffffffffffffffffff168173ffffffffffffffffffffffffffffffffffffffff16141561098e576040517f08c379a0000000000000000000000000000000000000000000000000000000008152600401610985906116a0565b60405180910390fd5b61099781610fde565b50565b600033905090565b600073ffffffffffffffffffffffffffffffffffffffff168373ffffffffffffffffffffffffffffffffffffffff161415610a12576040517f08c379a0000000000000000000000000000000000000000000000000000000008152600401610a0990611780565b60405180910390fd5b600073ffffffffffffffffffffffffffffffffffffffff168273ffffffffffffffffffffffffffffffffffffffff161415610a82576040517f08c379a0000000000000000000000000000000000000000000000000000000008152600401610a79906116c0565b60405180910390fd5b80600260008573ffffffffffffffffffffffffffffffffffffffff1673ffffffffffffffffffffffffffffffffffffffff16815260200190815260200160002060008473ffffffffffffffffffffffffffffffffffffffff1673ffffffffffffffffffffffffffffffffffffffff168152602001908152602001600020819055508173ffffffffffffffffffffffffffffffffffffffff168373ffffffffffffffffffffffffffffffffffffffff167f8c5be1e5ebec7d5bd14f71427d1e84f3dd0314c0f7b2291e5b200ac8c7c3b92583604051610b6091906117e0565b60405180910390a3505050565b6000610b79848461081b565b90507fffffffffffffffffffffffffffffffffffffffffffffffffffffffffffffffff8114610bf35781811015610be5576040517f08c379a0000000000000000000000000000000000000000000000000000000008152600401610bdc906116e0565b60405180910390fd5b610bf284848484036109a2565b5b50505050565b600073ffffffffffffffffffffffffffffffffffffffff168373ffffffffffffffffffffffffffffffffffffffff161415610c69576040517f08c379a0000000000000000000000000000000000000000000000000000000008152600401610c6090611760565b60405180910390fd5b600073ffffffffffffffffffffffffffffffffffffffff168273ffffffffffffffffffffffffffffffffffffffff161415610cd9576040517f08c379a0000000000000000000000000000000000000000000000000000000008152600401610cd090611660565b60405180910390fd5b610ce48383836110dc565b6000600160008573ffffffffffffffffffffffffffffffffffffffff1673ffffffffffffffffffffffffffffffffffffffff16815260200190815260200160002054905081811015610d6b576040517f08c379a0000000000000000000000000000000000000000000000000000000008152600401610d6290611700565b60405180910390fd5b818103600160008673ffffffffffffffffffffffffffffffffffffffff1673ffffffffffffffffffffffffffffffffffffffff1681526020019081526020016000208190555081600160008573ffffffffffffffffffffffffffffffffffffffff1673ffffffffffffffffffffffffffffffffffffffff1681526020019081526020016000206000828254610e009190611832565b925050819055508273ffffffffffffffffffffffffffffffffffffffff168473ffffffffffffffffffffffffffffffffffffffff167fddf252ad1be2c89b69c2b068fc378daa952ba7f163c4a11628f55a4df523b3ef84604051610e6491906117e0565b60405180910390a3610e778484846110e1565b50505050565b600073ffffffffffffffffffffffffffffffffffffffff168273ffffffffffffffffffffffffffffffffffffffff161415610eed576040517f08c379a0000000000000000000000000000000000000000000000000000000008152600401610ee4906117c0565b60405180910390fd5b610ef9600083836110dc565b8060036000828254610f0b9190611832565b9250508190555080600160008473ffffffffffffffffffffffffffffffffffffffff1673ffffffffffffffffffffffffffffffffffffffff1681526020019081526020016000206000828254610f619190611832565b925050819055508173ffffffffffffffffffffffffffffffffffffffff16600073ffffffffffffffffffffffffffffffffffffffff167fddf252ad1be2c89b69c2b068fc378daa952ba7f163c4a11628f55a4df523b3ef83604051610fc691906117e0565b60405180910390a3610fda600083836110e1565b5050565b60008060009054906101000a900473ffffffffffffffffffffffffffffffffffffffff169050816000806101000a81548173ffffffffffffffffffffffffffffffffffffffff021916908373ffffffffffffffffffffffffffffffffffffffff1602179055508173ffffffffffffffffffffffffffffffffffffffff168173ffffffffffffffffffffffffffffffffffffffff167f8be0079c531659141344cd1fd0a4f28419497f9722a3daafe3b4186f6b6457e060405160405180910390a35050565b60006110c0826110b2853361081b565b6110e690919063ffffffff16565b90506110cd8333836109a2565b6110d783836110fc565b505050565b505050565b505050565b600081836110f49190611888565b905092915050565b600073ffffffffffffffffffffffffffffffffffffffff168273ffffffffffffffffffffffffffffffffffffffff16141561116c576040517f08c379a000000000000000000000000000000000000000000000000000000000815260040161116390611740565b60405180910390fd5b611178826000836110dc565b6000600160008473ffffffffffffffffffffffffffffffffffffffff1673ffffffffffffffffffffffffffffffffffffffff168152602001908152602001600020549050818110156111ff576040517f08c379a00000000000000000000000000000000000000000000000000000000081526004016111f690611680565b60405180910390fd5b818103600160008573ffffffffffffffffffffffffffffffffffffffff1673ffffffffffffffffffffffffffffffffffffffff1681526020019081526020016000208190555081600360008282546112579190611888565b92505081905550600073ffffffffffffffffffffffffffffffffffffffff168373ffffffffffffffffffffffffffffffffffffffff167fddf252ad1be2c89b69c2b068fc378daa952ba7f163c4a11628f55a4df523b3ef846040516112bc91906117e0565b60405180910390a36112d0836000846110e1565b505050565b6000813590506112e481611d27565b92915050565b6000813590506112f981611d3e565b92915050565b60006020828403121561131157600080fd5b600061131f848285016112d5565b91505092915050565b6000806040838503121561133b57600080fd5b6000611349858286016112d5565b925050602061135a858286016112d5565b9150509250929050565b60008060006060848603121561137957600080fd5b6000611387868287016112d5565b9350506020611398868287016112d5565b92505060406113a9868287016112ea565b9150509250925092565b600080604083850312156113c657600080fd5b60006113d4858286016112d5565b92505060206113e5858286016112ea565b9150509250929050565b6113f8816118bc565b82525050565b611407816118ce565b82525050565b600061141882611816565b6114228185611821565b9350611432818560208601611911565b61143b816119d4565b840191505092915050565b6000611453602383611821565b915061145e826119e5565b604082019050919050565b6000611476602283611821565b915061148182611a34565b604082019050919050565b6000611499602683611821565b91506114a482611a83565b604082019050919050565b60006114bc602283611821565b91506114c782611ad2565b604082019050919050565b60006114df601d83611821565b91506114ea82611b21565b602082019050919050565b6000611502602683611821565b915061150d82611b4a565b604082019050919050565b6000611525602083611821565b915061153082611b99565b602082019050919050565b6000611548602183611821565b915061155382611bc2565b604082019050919050565b600061156b602583611821565b915061157682611c11565b604082019050919050565b600061158e602483611821565b915061159982611c60565b604082019050919050565b60006115b1602583611821565b91506115bc82611caf565b604082019050919050565b60006115d4601f83611821565b91506115df82611cfe565b602082019050919050565b6115f3816118fa565b82525050565b61160281611904565b82525050565b600060208201905061161d60008301846113ef565b92915050565b600060208201905061163860008301846113fe565b92915050565b60006020820190508181036000830152611658818461140d565b905092915050565b6000602082019050818103600083015261167981611446565b9050919050565b6000602082019050818103600083015261169981611469565b9050919050565b600060208201905081810360008301526116b98161148c565b9050919050565b600060208201905081810360008301526116d9816114af565b9050919050565b600060208201905081810360008301526116f9816114d2565b9050919050565b60006020820190508181036000830152611719816114f5565b9050919050565b6000602082019050818103600083015261173981611518565b9050919050565b600060208201905081810360008301526117598161153b565b9050919050565b600060208201905081810360008301526117798161155e565b9050919050565b6000602082019050818103600083015261179981611581565b9050919050565b600060208201905081810360008301526117b9816115a4565b9050919050565b600060208201905081810360008301526117d9816115c7565b9050919050565b60006020820190506117f560008301846115ea565b92915050565b600060208201905061181060008301846115f9565b92915050565b600081519050919050565b600082825260208201905092915050565b600061183d826118fa565b9150611848836118fa565b9250827fffffffffffffffffffffffffffffffffffffffffffffffffffffffffffffffff0382111561187d5761187c611976565b5b828201905092915050565b6000611893826118fa565b915061189e836118fa565b9250828210156118b1576118b0611976565b5b828203905092915050565b60006118c7826118da565b9050919050565b60008115159050919050565b600073ffffffffffffffffffffffffffffffffffffffff82169050919050565b6000819050919050565b600060ff82169050919050565b60005b8381101561192f578082015181840152602081019050611914565b8381111561193e576000848401525b50505050565b6000600282049050600182168061195c57607f821691505b602082108114156119705761196f6119a5565b5b50919050565b7f4e487b7100000000000000000000000000000000000000000000000000000000600052601160045260246000fd5b7f4e487b7100000000000000000000000000000000000000000000000000000000600052602260045260246000fd5b6000601f19601f8301169050919050565b7f45524332303a207472616e7366657220746f20746865207a65726f206164647260008201527f6573730000000000000000000000000000000000000000000000000000000000602082015250565b7f45524332303a206275726e20616d6f756e7420657863656564732062616c616e60008201527f6365000000000000000000000000000000000000000000000000000000000000602082015250565b7f4f776e61626c653a206e6577206f776e657220697320746865207a65726f206160008201527f6464726573730000000000000000000000000000000000000000000000000000602082015250565b7f45524332303a20617070726f766520746f20746865207a65726f20616464726560008201527f7373000000000000000000000000000000000000000000000000000000000000602082015250565b7f45524332303a20696e73756666696369656e7420616c6c6f77616e6365000000600082015250565b7f45524332303a207472616e7366657220616d6f756e742065786365656473206260008201527f616c616e63650000000000000000000000000000000000000000000000000000602082015250565b7f4f776e61626c653a2063616c6c6572206973206e6f7420746865206f776e6572600082015250565b7f45524332303a206275726e2066726f6d20746865207a65726f2061646472657360008201527f7300000000000000000000000000000000000000000000000000000000000000602082015250565b7f45524332303a207472616e736665722066726f6d20746865207a65726f20616460008201527f6472657373000000000000000000000000000000000000000000000000000000602082015250565b7f45524332303a20617070726f76652066726f6d20746865207a65726f2061646460008201527f7265737300000000000000000000000000000000000000000000000000000000602082015250565b7f45524332303a2064656372656173656420616c6c6f77616e63652062656c6f7760008201527f207a65726f000000000000000000000000000000000000000000000000000000602082015250565b7f45524332303a206d696e7420746f20746865207a65726f206164647265737300600082015250565b611d30816118bc565b8114611d3b57600080fd5b50565b611d47816118fa565b8114611d5257600080fd5b5056fea2646970667358221220e3089eb32660c4ef99f39fd58b2d4a119ce39191e15b6df5cef7a546d0b3da5064736f6c63430008040033",
  "linkReferences": {},
  "deployedLinkReferences": {}
}